{
	"contracts/Values.sol": {
		"FindMinMaxValue": {
			"abi": [
				{
					"inputs": [],
					"name": "maxValue_int16",
					"outputs": [
						{
							"internalType": "int16",
							"name": "",
							"type": "int16"
						}
					],
					"stateMutability": "view",
					"type": "function"
				},
				{
					"inputs": [],
					"name": "maxValue_int256",
					"outputs": [
						{
							"internalType": "int256",
							"name": "",
							"type": "int256"
						}
					],
					"stateMutability": "view",
					"type": "function"
				},
				{
					"inputs": [],
					"name": "maxValue_int32",
					"outputs": [
						{
							"internalType": "int32",
							"name": "",
							"type": "int32"
						}
					],
					"stateMutability": "view",
					"type": "function"
				},
				{
					"inputs": [],
					"name": "maxValue_int8",
					"outputs": [
						{
							"internalType": "int8",
							"name": "",
							"type": "int8"
						}
					],
					"stateMutability": "view",
					"type": "function"
				},
				{
					"inputs": [],
					"name": "maxValue_uint16",
					"outputs": [
						{
							"internalType": "uint16",
							"name": "",
							"type": "uint16"
						}
					],
					"stateMutability": "view",
					"type": "function"
				},
				{
					"inputs": [],
					"name": "maxValue_uint256",
					"outputs": [
						{
							"internalType": "uint256",
							"name": "",
							"type": "uint256"
						}
					],
					"stateMutability": "view",
					"type": "function"
				},
				{
					"inputs": [],
					"name": "maxValue_uint32",
					"outputs": [
						{
							"internalType": "uint32",
							"name": "",
							"type": "uint32"
						}
					],
					"stateMutability": "view",
					"type": "function"
				},
				{
					"inputs": [],
					"name": "maxValue_uint8",
					"outputs": [
						{
							"internalType": "uint8",
							"name": "",
							"type": "uint8"
						}
					],
					"stateMutability": "view",
					"type": "function"
				}
			],
			"devdoc": {
				"kind": "dev",
				"methods": {},
				"version": 1
			},
			"evm": {
				"assembly": "    /* \"contracts/Values.sol\":63:534  contract FindMinMaxValue {... */\n  mstore(0x40, 0x80)\n    /* \"contracts/Values.sol\":128:143  type(uint8).max */\n  0xff\n    /* \"contracts/Values.sol\":98:143  uint8 public maxValue_uint8 = type(uint8).max */\n  0x00\n  exp(0x0100, 0x00)\n  dup2\n  sload\n  dup2\n  0xff\n  mul\n  not\n  and\n  swap1\n  dup4\n  0xff\n  and\n  mul\n  or\n  swap1\n  sstore\n  pop\n    /* \"contracts/Values.sol\":183:199  type(uint16).max */\n  0xffff\n    /* \"contracts/Values.sol\":151:199  uint16 public maxValue_uint16 = type(uint16).max */\n  0x00\n  exp(0x0100, 0x01)\n  dup2\n  sload\n  dup2\n  0xffff\n  mul\n  not\n  and\n  swap1\n  dup4\n  0xffff\n  and\n  mul\n  or\n  swap1\n  sstore\n  pop\n    /* \"contracts/Values.sol\":239:255  type(uint32).max */\n  0xffffffff\n    /* \"contracts/Values.sol\":207:255  uint32 public maxValue_uint32 = type(uint32).max */\n  0x00\n  exp(0x0100, 0x03)\n  dup2\n  sload\n  dup2\n  0xffffffff\n  mul\n  not\n  and\n  swap1\n  dup4\n  0xffffffff\n  and\n  mul\n  or\n  swap1\n  sstore\n  pop\n    /* \"contracts/Values.sol\":297:314  type(uint256).max */\n  0xffffffffffffffffffffffffffffffffffffffffffffffffffffffffffffffff\n    /* \"contracts/Values.sol\":263:314  uint256 public maxValue_uint256 = type(uint256).max */\n  0x01\n  sstore\n    /* \"contracts/Values.sol\":352:366  type(int8).max */\n  0x7f\n    /* \"contracts/Values.sol\":324:366  int8 public maxValue_int8 = type(int8).max */\n  0x02\n  exp(0x0100, 0x00)\n  dup2\n  sload\n  dup2\n  0xff\n  mul\n  not\n  and\n  swap1\n  dup4\n  0x00\n  signextend\n  0xff\n  and\n  mul\n  or\n  swap1\n  sstore\n  pop\n    /* \"contracts/Values.sol\":404:419  type(int16).max */\n  0x7fff\n    /* \"contracts/Values.sol\":374:419  int16 public maxValue_int16 = type(int16).max */\n  0x02\n  exp(0x0100, 0x01)\n  dup2\n  sload\n  dup2\n  0xffff\n  mul\n  not\n  and\n  swap1\n  dup4\n  0x01\n  signextend\n  0xffff\n  and\n  mul\n  or\n  swap1\n  sstore\n  pop\n    /* \"contracts/Values.sol\":457:472  type(int32).max */\n  0x7fffffff\n    /* \"contracts/Values.sol\":427:472  int32 public maxValue_int32 = type(int32).max */\n  0x02\n  exp(0x0100, 0x03)\n  dup2\n  sload\n  dup2\n  0xffffffff\n  mul\n  not\n  and\n  swap1\n  dup4\n  0x03\n  signextend\n  0xffffffff\n  and\n  mul\n  or\n  swap1\n  sstore\n  pop\n    /* \"contracts/Values.sol\":512:528  type(int256).max */\n  0x7fffffffffffffffffffffffffffffffffffffffffffffffffffffffffffffff\n    /* \"contracts/Values.sol\":480:528  int256 public maxValue_int256 = type(int256).max */\n  0x03\n  sstore\n    /* \"contracts/Values.sol\":63:534  contract FindMinMaxValue {... */\n  callvalue\n  dup1\n  iszero\n  tag_1\n  jumpi\n  revert(0x00, 0x00)\ntag_1:\n  pop\n  dataSize(sub_0)\n  dup1\n  dataOffset(sub_0)\n  0x00\n  codecopy\n  0x00\n  return\nstop\n\nsub_0: assembly {\n        /* \"contracts/Values.sol\":63:534  contract FindMinMaxValue {... */\n      mstore(0x40, 0x80)\n      callvalue\n      dup1\n      iszero\n      tag_1\n      jumpi\n      revert(0x00, 0x00)\n    tag_1:\n      pop\n      jumpi(tag_2, lt(calldatasize, 0x04))\n      shr(0xe0, calldataload(0x00))\n      dup1\n      0x5f8b5400\n      gt\n      tag_11\n      jumpi\n      dup1\n      0x5f8b5400\n      eq\n      tag_7\n      jumpi\n      dup1\n      0xaa5ac02b\n      eq\n      tag_8\n      jumpi\n      dup1\n      0xad5572f8\n      eq\n      tag_9\n      jumpi\n      dup1\n      0xfc9c3fc0\n      eq\n      tag_10\n      jumpi\n      jump(tag_2)\n    tag_11:\n      dup1\n      0x152ae3\n      eq\n      tag_3\n      jumpi\n      dup1\n      0x03bd7a5e\n      eq\n      tag_4\n      jumpi\n      dup1\n      0x1905d859\n      eq\n      tag_5\n      jumpi\n      dup1\n      0x4b275d2a\n      eq\n      tag_6\n      jumpi\n    tag_2:\n      revert(0x00, 0x00)\n        /* \"contracts/Values.sol\":324:366  int8 public maxValue_int8 = type(int8).max */\n    tag_3:\n      tag_12\n      tag_13\n      jump\t// in\n    tag_12:\n      mload(0x40)\n      tag_14\n      swap2\n      swap1\n      tag_15\n      jump\t// in\n    tag_14:\n      mload(0x40)\n      dup1\n      swap2\n      sub\n      swap1\n      return\n        /* \"contracts/Values.sol\":427:472  int32 public maxValue_int32 = type(int32).max */\n    tag_4:\n      tag_16\n      tag_17\n      jump\t// in\n    tag_16:\n      mload(0x40)\n      tag_18\n      swap2\n      swap1\n      tag_19\n      jump\t// in\n    tag_18:\n      mload(0x40)\n      dup1\n      swap2\n      sub\n      swap1\n      return\n        /* \"contracts/Values.sol\":98:143  uint8 public maxValue_uint8 = type(uint8).max */\n    tag_5:\n      tag_20\n      tag_21\n      jump\t// in\n    tag_20:\n      mload(0x40)\n      tag_22\n      swap2\n      swap1\n      tag_23\n      jump\t// in\n    tag_22:\n      mload(0x40)\n      dup1\n      swap2\n      sub\n      swap1\n      return\n        /* \"contracts/Values.sol\":151:199  uint16 public maxValue_uint16 = type(uint16).max */\n    tag_6:\n      tag_24\n      tag_25\n      jump\t// in\n    tag_24:\n      mload(0x40)\n      tag_26\n      swap2\n      swap1\n      tag_27\n      jump\t// in\n    tag_26:\n      mload(0x40)\n      dup1\n      swap2\n      sub\n      swap1\n      return\n        /* \"contracts/Values.sol\":207:255  uint32 public maxValue_uint32 = type(uint32).max */\n    tag_7:\n      tag_28\n      tag_29\n      jump\t// in\n    tag_28:\n      mload(0x40)\n      tag_30\n      swap2\n      swap1\n      tag_31\n      jump\t// in\n    tag_30:\n      mload(0x40)\n      dup1\n      swap2\n      sub\n      swap1\n      return\n        /* \"contracts/Values.sol\":374:419  int16 public maxValue_int16 = type(int16).max */\n    tag_8:\n      tag_32\n      tag_33\n      jump\t// in\n    tag_32:\n      mload(0x40)\n      tag_34\n      swap2\n      swap1\n      tag_35\n      jump\t// in\n    tag_34:\n      mload(0x40)\n      dup1\n      swap2\n      sub\n      swap1\n      return\n        /* \"contracts/Values.sol\":263:314  uint256 public maxValue_uint256 = type(uint256).max */\n    tag_9:\n      tag_36\n      tag_37\n      jump\t// in\n    tag_36:\n      mload(0x40)\n      tag_38\n      swap2\n      swap1\n      tag_39\n      jump\t// in\n    tag_38:\n      mload(0x40)\n      dup1\n      swap2\n      sub\n      swap1\n      return\n        /* \"contracts/Values.sol\":480:528  int256 public maxValue_int256 = type(int256).max */\n    tag_10:\n      tag_40\n      tag_41\n      jump\t// in\n    tag_40:\n      mload(0x40)\n      tag_42\n      swap2\n      swap1\n      tag_43\n      jump\t// in\n    tag_42:\n      mload(0x40)\n      dup1\n      swap2\n      sub\n      swap1\n      return\n        /* \"contracts/Values.sol\":324:366  int8 public maxValue_int8 = type(int8).max */\n    tag_13:\n      0x02\n      0x00\n      swap1\n      sload\n      swap1\n      0x0100\n      exp\n      swap1\n      div\n      0x00\n      signextend\n      dup2\n      jump\t// out\n        /* \"contracts/Values.sol\":427:472  int32 public maxValue_int32 = type(int32).max */\n    tag_17:\n      0x02\n      0x03\n      swap1\n      sload\n      swap1\n      0x0100\n      exp\n      swap1\n      div\n      0x03\n      signextend\n      dup2\n      jump\t// out\n        /* \"contracts/Values.sol\":98:143  uint8 public maxValue_uint8 = type(uint8).max */\n    tag_21:\n      0x00\n      0x00\n      swap1\n      sload\n      swap1\n      0x0100\n      exp\n      swap1\n      div\n      0xff\n      and\n      dup2\n      jump\t// out\n        /* \"contracts/Values.sol\":151:199  uint16 public maxValue_uint16 = type(uint16).max */\n    tag_25:\n      0x00\n      0x01\n      swap1\n      sload\n      swap1\n      0x0100\n      exp\n      swap1\n      div\n      0xffff\n      and\n      dup2\n      jump\t// out\n        /* \"contracts/Values.sol\":207:255  uint32 public maxValue_uint32 = type(uint32).max */\n    tag_29:\n      0x00\n      0x03\n      swap1\n      sload\n      swap1\n      0x0100\n      exp\n      swap1\n      div\n      0xffffffff\n      and\n      dup2\n      jump\t// out\n        /* \"contracts/Values.sol\":374:419  int16 public maxValue_int16 = type(int16).max */\n    tag_33:\n      0x02\n      0x01\n      swap1\n      sload\n      swap1\n      0x0100\n      exp\n      swap1\n      div\n      0x01\n      signextend\n      dup2\n      jump\t// out\n        /* \"contracts/Values.sol\":263:314  uint256 public maxValue_uint256 = type(uint256).max */\n    tag_37:\n      sload(0x01)\n      dup2\n      jump\t// out\n        /* \"contracts/Values.sol\":480:528  int256 public maxValue_int256 = type(int256).max */\n    tag_41:\n      sload(0x03)\n      dup2\n      jump\t// out\n        /* \"#utility.yul\":7:96   */\n    tag_44:\n        /* \"#utility.yul\":41:48   */\n      0x00\n        /* \"#utility.yul\":84:89   */\n      dup2\n        /* \"#utility.yul\":81:82   */\n      0x00\n        /* \"#utility.yul\":70:90   */\n      signextend\n        /* \"#utility.yul\":59:90   */\n      swap1\n      pop\n        /* \"#utility.yul\":7:96   */\n      swap2\n      swap1\n      pop\n      jump\t// out\n        /* \"#utility.yul\":102:211   */\n    tag_45:\n        /* \"#utility.yul\":183:204   */\n      tag_63\n        /* \"#utility.yul\":198:203   */\n      dup2\n        /* \"#utility.yul\":183:204   */\n      tag_44\n      jump\t// in\n    tag_63:\n        /* \"#utility.yul\":178:181   */\n      dup3\n        /* \"#utility.yul\":171:205   */\n      mstore\n        /* \"#utility.yul\":102:211   */\n      pop\n      pop\n      jump\t// out\n        /* \"#utility.yul\":217:427   */\n    tag_15:\n        /* \"#utility.yul\":304:308   */\n      0x00\n        /* \"#utility.yul\":342:344   */\n      0x20\n        /* \"#utility.yul\":331:340   */\n      dup3\n        /* \"#utility.yul\":327:345   */\n      add\n        /* \"#utility.yul\":319:345   */\n      swap1\n      pop\n        /* \"#utility.yul\":355:420   */\n      tag_65\n        /* \"#utility.yul\":417:418   */\n      0x00\n        /* \"#utility.yul\":406:415   */\n      dup4\n        /* \"#utility.yul\":402:419   */\n      add\n        /* \"#utility.yul\":393:399   */\n      dup5\n        /* \"#utility.yul\":355:420   */\n      tag_45\n      jump\t// in\n    tag_65:\n        /* \"#utility.yul\":217:427   */\n      swap3\n      swap2\n      pop\n      pop\n      jump\t// out\n        /* \"#utility.yul\":433:523   */\n    tag_46:\n        /* \"#utility.yul\":468:475   */\n      0x00\n        /* \"#utility.yul\":511:516   */\n      dup2\n        /* \"#utility.yul\":508:509   */\n      0x03\n        /* \"#utility.yul\":497:517   */\n      signextend\n        /* \"#utility.yul\":486:517   */\n      swap1\n      pop\n        /* \"#utility.yul\":433:523   */\n      swap2\n      swap1\n      pop\n      jump\t// out\n        /* \"#utility.yul\":529:641   */\n    tag_47:\n        /* \"#utility.yul\":612:634   */\n      tag_68\n        /* \"#utility.yul\":628:633   */\n      dup2\n        /* \"#utility.yul\":612:634   */\n      tag_46\n      jump\t// in\n    tag_68:\n        /* \"#utility.yul\":607:610   */\n      dup3\n        /* \"#utility.yul\":600:635   */\n      mstore\n        /* \"#utility.yul\":529:641   */\n      pop\n      pop\n      jump\t// out\n        /* \"#utility.yul\":647:861   */\n    tag_19:\n        /* \"#utility.yul\":736:740   */\n      0x00\n        /* \"#utility.yul\":774:776   */\n      0x20\n        /* \"#utility.yul\":763:772   */\n      dup3\n        /* \"#utility.yul\":759:777   */\n      add\n        /* \"#utility.yul\":751:777   */\n      swap1\n      pop\n        /* \"#utility.yul\":787:854   */\n      tag_70\n        /* \"#utility.yul\":851:852   */\n      0x00\n        /* \"#utility.yul\":840:849   */\n      dup4\n        /* \"#utility.yul\":836:853   */\n      add\n        /* \"#utility.yul\":827:833   */\n      dup5\n        /* \"#utility.yul\":787:854   */\n      tag_47\n      jump\t// in\n    tag_70:\n        /* \"#utility.yul\":647:861   */\n      swap3\n      swap2\n      pop\n      pop\n      jump\t// out\n        /* \"#utility.yul\":867:953   */\n    tag_48:\n        /* \"#utility.yul\":902:909   */\n      0x00\n        /* \"#utility.yul\":942:946   */\n      0xff\n        /* \"#utility.yul\":935:940   */\n      dup3\n        /* \"#utility.yul\":931:947   */\n      and\n        /* \"#utility.yul\":920:947   */\n      swap1\n      pop\n        /* \"#utility.yul\":867:953   */\n      swap2\n      swap1\n      pop\n      jump\t// out\n        /* \"#utility.yul\":959:1071   */\n    tag_49:\n        /* \"#utility.yul\":1042:1064   */\n      tag_73\n        /* \"#utility.yul\":1058:1063   */\n      dup2\n        /* \"#utility.yul\":1042:1064   */\n      tag_48\n      jump\t// in\n    tag_73:\n        /* \"#utility.yul\":1037:1040   */\n      dup3\n        /* \"#utility.yul\":1030:1065   */\n      mstore\n        /* \"#utility.yul\":959:1071   */\n      pop\n      pop\n      jump\t// out\n        /* \"#utility.yul\":1077:1291   */\n    tag_23:\n        /* \"#utility.yul\":1166:1170   */\n      0x00\n        /* \"#utility.yul\":1204:1206   */\n      0x20\n        /* \"#utility.yul\":1193:1202   */\n      dup3\n        /* \"#utility.yul\":1189:1207   */\n      add\n        /* \"#utility.yul\":1181:1207   */\n      swap1\n      pop\n        /* \"#utility.yul\":1217:1284   */\n      tag_75\n        /* \"#utility.yul\":1281:1282   */\n      0x00\n        /* \"#utility.yul\":1270:1279   */\n      dup4\n        /* \"#utility.yul\":1266:1283   */\n      add\n        /* \"#utility.yul\":1257:1263   */\n      dup5\n        /* \"#utility.yul\":1217:1284   */\n      tag_49\n      jump\t// in\n    tag_75:\n        /* \"#utility.yul\":1077:1291   */\n      swap3\n      swap2\n      pop\n      pop\n      jump\t// out\n        /* \"#utility.yul\":1297:1386   */\n    tag_50:\n        /* \"#utility.yul\":1333:1340   */\n      0x00\n        /* \"#utility.yul\":1373:1379   */\n      0xffff\n        /* \"#utility.yul\":1366:1371   */\n      dup3\n        /* \"#utility.yul\":1362:1380   */\n      and\n        /* \"#utility.yul\":1351:1380   */\n      swap1\n      pop\n        /* \"#utility.yul\":1297:1386   */\n      swap2\n      swap1\n      pop\n      jump\t// out\n        /* \"#utility.yul\":1392:1507   */\n    tag_51:\n        /* \"#utility.yul\":1477:1500   */\n      tag_78\n        /* \"#utility.yul\":1494:1499   */\n      dup2\n        /* \"#utility.yul\":1477:1500   */\n      tag_50\n      jump\t// in\n    tag_78:\n        /* \"#utility.yul\":1472:1475   */\n      dup3\n        /* \"#utility.yul\":1465:1501   */\n      mstore\n        /* \"#utility.yul\":1392:1507   */\n      pop\n      pop\n      jump\t// out\n        /* \"#utility.yul\":1513:1731   */\n    tag_27:\n        /* \"#utility.yul\":1604:1608   */\n      0x00\n        /* \"#utility.yul\":1642:1644   */\n      0x20\n        /* \"#utility.yul\":1631:1640   */\n      dup3\n        /* \"#utility.yul\":1627:1645   */\n      add\n        /* \"#utility.yul\":1619:1645   */\n      swap1\n      pop\n        /* \"#utility.yul\":1655:1724   */\n      tag_80\n        /* \"#utility.yul\":1721:1722   */\n      0x00\n        /* \"#utility.yul\":1710:1719   */\n      dup4\n        /* \"#utility.yul\":1706:1723   */\n      add\n        /* \"#utility.yul\":1697:1703   */\n      dup5\n        /* \"#utility.yul\":1655:1724   */\n      tag_51\n      jump\t// in\n    tag_80:\n        /* \"#utility.yul\":1513:1731   */\n      swap3\n      swap2\n      pop\n      pop\n      jump\t// out\n        /* \"#utility.yul\":1737:1830   */\n    tag_52:\n        /* \"#utility.yul\":1773:1780   */\n      0x00\n        /* \"#utility.yul\":1813:1823   */\n      0xffffffff\n        /* \"#utility.yul\":1806:1811   */\n      dup3\n        /* \"#utility.yul\":1802:1824   */\n      and\n        /* \"#utility.yul\":1791:1824   */\n      swap1\n      pop\n        /* \"#utility.yul\":1737:1830   */\n      swap2\n      swap1\n      pop\n      jump\t// out\n        /* \"#utility.yul\":1836:1951   */\n    tag_53:\n        /* \"#utility.yul\":1921:1944   */\n      tag_83\n        /* \"#utility.yul\":1938:1943   */\n      dup2\n        /* \"#utility.yul\":1921:1944   */\n      tag_52\n      jump\t// in\n    tag_83:\n        /* \"#utility.yul\":1916:1919   */\n      dup3\n        /* \"#utility.yul\":1909:1945   */\n      mstore\n        /* \"#utility.yul\":1836:1951   */\n      pop\n      pop\n      jump\t// out\n        /* \"#utility.yul\":1957:2175   */\n    tag_31:\n        /* \"#utility.yul\":2048:2052   */\n      0x00\n        /* \"#utility.yul\":2086:2088   */\n      0x20\n        /* \"#utility.yul\":2075:2084   */\n      dup3\n        /* \"#utility.yul\":2071:2089   */\n      add\n        /* \"#utility.yul\":2063:2089   */\n      swap1\n      pop\n        /* \"#utility.yul\":2099:2168   */\n      tag_85\n        /* \"#utility.yul\":2165:2166   */\n      0x00\n        /* \"#utility.yul\":2154:2163   */\n      dup4\n        /* \"#utility.yul\":2150:2167   */\n      add\n        /* \"#utility.yul\":2141:2147   */\n      dup5\n        /* \"#utility.yul\":2099:2168   */\n      tag_53\n      jump\t// in\n    tag_85:\n        /* \"#utility.yul\":1957:2175   */\n      swap3\n      swap2\n      pop\n      pop\n      jump\t// out\n        /* \"#utility.yul\":2181:2271   */\n    tag_54:\n        /* \"#utility.yul\":2216:2223   */\n      0x00\n        /* \"#utility.yul\":2259:2264   */\n      dup2\n        /* \"#utility.yul\":2256:2257   */\n      0x01\n        /* \"#utility.yul\":2245:2265   */\n      signextend\n        /* \"#utility.yul\":2234:2265   */\n      swap1\n      pop\n        /* \"#utility.yul\":2181:2271   */\n      swap2\n      swap1\n      pop\n      jump\t// out\n        /* \"#utility.yul\":2277:2389   */\n    tag_55:\n        /* \"#utility.yul\":2360:2382   */\n      tag_88\n        /* \"#utility.yul\":2376:2381   */\n      dup2\n        /* \"#utility.yul\":2360:2382   */\n      tag_54\n      jump\t// in\n    tag_88:\n        /* \"#utility.yul\":2355:2358   */\n      dup3\n        /* \"#utility.yul\":2348:2383   */\n      mstore\n        /* \"#utility.yul\":2277:2389   */\n      pop\n      pop\n      jump\t// out\n        /* \"#utility.yul\":2395:2609   */\n    tag_35:\n        /* \"#utility.yul\":2484:2488   */\n      0x00\n        /* \"#utility.yul\":2522:2524   */\n      0x20\n        /* \"#utility.yul\":2511:2520   */\n      dup3\n        /* \"#utility.yul\":2507:2525   */\n      add\n        /* \"#utility.yul\":2499:2525   */\n      swap1\n      pop\n        /* \"#utility.yul\":2535:2602   */\n      tag_90\n        /* \"#utility.yul\":2599:2600   */\n      0x00\n        /* \"#utility.yul\":2588:2597   */\n      dup4\n        /* \"#utility.yul\":2584:2601   */\n      add\n        /* \"#utility.yul\":2575:2581   */\n      dup5\n        /* \"#utility.yul\":2535:2602   */\n      tag_55\n      jump\t// in\n    tag_90:\n        /* \"#utility.yul\":2395:2609   */\n      swap3\n      swap2\n      pop\n      pop\n      jump\t// out\n        /* \"#utility.yul\":2615:2692   */\n    tag_56:\n        /* \"#utility.yul\":2652:2659   */\n      0x00\n        /* \"#utility.yul\":2681:2686   */\n      dup2\n        /* \"#utility.yul\":2670:2686   */\n      swap1\n      pop\n        /* \"#utility.yul\":2615:2692   */\n      swap2\n      swap1\n      pop\n      jump\t// out\n        /* \"#utility.yul\":2698:2816   */\n    tag_57:\n        /* \"#utility.yul\":2785:2809   */\n      tag_93\n        /* \"#utility.yul\":2803:2808   */\n      dup2\n        /* \"#utility.yul\":2785:2809   */\n      tag_56\n      jump\t// in\n    tag_93:\n        /* \"#utility.yul\":2780:2783   */\n      dup3\n        /* \"#utility.yul\":2773:2810   */\n      mstore\n        /* \"#utility.yul\":2698:2816   */\n      pop\n      pop\n      jump\t// out\n        /* \"#utility.yul\":2822:3044   */\n    tag_39:\n        /* \"#utility.yul\":2915:2919   */\n      0x00\n        /* \"#utility.yul\":2953:2955   */\n      0x20\n        /* \"#utility.yul\":2942:2951   */\n      dup3\n        /* \"#utility.yul\":2938:2956   */\n      add\n        /* \"#utility.yul\":2930:2956   */\n      swap1\n      pop\n        /* \"#utility.yul\":2966:3037   */\n      tag_95\n        /* \"#utility.yul\":3034:3035   */\n      0x00\n        /* \"#utility.yul\":3023:3032   */\n      dup4\n        /* \"#utility.yul\":3019:3036   */\n      add\n        /* \"#utility.yul\":3010:3016   */\n      dup5\n        /* \"#utility.yul\":2966:3037   */\n      tag_57\n      jump\t// in\n    tag_95:\n        /* \"#utility.yul\":2822:3044   */\n      swap3\n      swap2\n      pop\n      pop\n      jump\t// out\n        /* \"#utility.yul\":3050:3126   */\n    tag_58:\n        /* \"#utility.yul\":3086:3093   */\n      0x00\n        /* \"#utility.yul\":3115:3120   */\n      dup2\n        /* \"#utility.yul\":3104:3120   */\n      swap1\n      pop\n        /* \"#utility.yul\":3050:3126   */\n      swap2\n      swap1\n      pop\n      jump\t// out\n        /* \"#utility.yul\":3132:3247   */\n    tag_59:\n        /* \"#utility.yul\":3217:3240   */\n      tag_98\n        /* \"#utility.yul\":3234:3239   */\n      dup2\n        /* \"#utility.yul\":3217:3240   */\n      tag_58\n      jump\t// in\n    tag_98:\n        /* \"#utility.yul\":3212:3215   */\n      dup3\n        /* \"#utility.yul\":3205:3241   */\n      mstore\n        /* \"#utility.yul\":3132:3247   */\n      pop\n      pop\n      jump\t// out\n        /* \"#utility.yul\":3253:3471   */\n    tag_43:\n        /* \"#utility.yul\":3344:3348   */\n      0x00\n        /* \"#utility.yul\":3382:3384   */\n      0x20\n        /* \"#utility.yul\":3371:3380   */\n      dup3\n        /* \"#utility.yul\":3367:3385   */\n      add\n        /* \"#utility.yul\":3359:3385   */\n      swap1\n      pop\n        /* \"#utility.yul\":3395:3464   */\n      tag_100\n        /* \"#utility.yul\":3461:3462   */\n      0x00\n        /* \"#utility.yul\":3450:3459   */\n      dup4\n        /* \"#utility.yul\":3446:3463   */\n      add\n        /* \"#utility.yul\":3437:3443   */\n      dup5\n        /* \"#utility.yul\":3395:3464   */\n      tag_59\n      jump\t// in\n    tag_100:\n        /* \"#utility.yul\":3253:3471   */\n      swap3\n      swap2\n      pop\n      pop\n      jump\t// out\n\n    auxdata: 0xa264697066735822122059b5bf0cbd8d6b625547ab9c2e53e929620244c7254274d5ffc784a78d88c15664736f6c63430008220033\n}\n",
				"bytecode": {
					"linkReferences": {},
					"object": "608060405260ff5f5f6101000a81548160ff021916908360ff16021790555061ffff5f60016101000a81548161ffff021916908361ffff16021790555063ffffffff5f60036101000a81548163ffffffff021916908363ffffffff1602179055507fffffffffffffffffffffffffffffffffffffffffffffffffffffffffffffffff600155607f60025f6101000a81548160ff02191690835f0b60ff160217905550617fff600260016101000a81548161ffff021916908360010b61ffff160217905550637fffffff600260036101000a81548163ffffffff021916908360030b63ffffffff1602179055507f7fffffffffffffffffffffffffffffffffffffffffffffffffffffffffffffff60035534801561011a575f5ffd5b506103c8806101285f395ff3fe608060405234801561000f575f5ffd5b5060043610610085575f3560e01c80635f8b5400116100595780635f8b540014610101578063aa5ac02b1461011f578063ad5572f81461013d578063fc9c3fc01461015b57610085565b8062152ae31461008957806303bd7a5e146100a75780631905d859146100c55780634b275d2a146100e3575b5f5ffd5b610091610179565b60405161009e919061020f565b60405180910390f35b6100af61018a565b6040516100bc9190610243565b60405180910390f35b6100cd61019d565b6040516100da9190610277565b60405180910390f35b6100eb6101ae565b6040516100f891906102ac565b60405180910390f35b6101096101c1565b60405161011691906102e3565b60405180910390f35b6101276101d6565b6040516101349190610317565b60405180910390f35b6101456101e9565b6040516101529190610348565b60405180910390f35b6101636101ef565b6040516101709190610379565b60405180910390f35b60025f9054906101000a90045f0b81565b600260039054906101000a900460030b81565b5f5f9054906101000a900460ff1681565b5f60019054906101000a900461ffff1681565b5f60039054906101000a900463ffffffff1681565b600260019054906101000a900460010b81565b60015481565b60035481565b5f815f0b9050919050565b610209816101f5565b82525050565b5f6020820190506102225f830184610200565b92915050565b5f8160030b9050919050565b61023d81610228565b82525050565b5f6020820190506102565f830184610234565b92915050565b5f60ff82169050919050565b6102718161025c565b82525050565b5f60208201905061028a5f830184610268565b92915050565b5f61ffff82169050919050565b6102a681610290565b82525050565b5f6020820190506102bf5f83018461029d565b92915050565b5f63ffffffff82169050919050565b6102dd816102c5565b82525050565b5f6020820190506102f65f8301846102d4565b92915050565b5f8160010b9050919050565b610311816102fc565b82525050565b5f60208201905061032a5f830184610308565b92915050565b5f819050919050565b61034281610330565b82525050565b5f60208201905061035b5f830184610339565b92915050565b5f819050919050565b61037381610361565b82525050565b5f60208201905061038c5f83018461036a565b9291505056fea264697066735822122059b5bf0cbd8d6b625547ab9c2e53e929620244c7254274d5ffc784a78d88c15664736f6c63430008220033",
					"opcodes": "PUSH1 0x80 PUSH1 0x40 MSTORE PUSH1 0xFF PUSH0 PUSH0 PUSH2 0x100 EXP DUP2 SLOAD DUP2 PUSH1 0xFF MUL NOT AND SWAP1 DUP4 PUSH1 0xFF AND MUL OR SWAP1 SSTORE POP PUSH2 0xFFFF PUSH0 PUSH1 0x1 PUSH2 0x100 EXP DUP2 SLOAD DUP2 PUSH2 0xFFFF MUL NOT AND SWAP1 DUP4 PUSH2 0xFFFF AND MUL OR SWAP1 SSTORE POP PUSH4 0xFFFFFFFF PUSH0 PUSH1 0x3 PUSH2 0x100 EXP DUP2 SLOAD DUP2 PUSH4 0xFFFFFFFF MUL NOT AND SWAP1 DUP4 PUSH4 0xFFFFFFFF AND MUL OR SWAP1 SSTORE POP PUSH32 0xFFFFFFFFFFFFFFFFFFFFFFFFFFFFFFFFFFFFFFFFFFFFFFFFFFFFFFFFFFFFFFFF PUSH1 0x1 SSTORE PUSH1 0x7F PUSH1 0x2 PUSH0 PUSH2 0x100 EXP DUP2 SLOAD DUP2 PUSH1 0xFF MUL NOT AND SWAP1 DUP4 PUSH0 SIGNEXTEND PUSH1 0xFF AND MUL OR SWAP1 SSTORE POP PUSH2 0x7FFF PUSH1 0x2 PUSH1 0x1 PUSH2 0x100 EXP DUP2 SLOAD DUP2 PUSH2 0xFFFF MUL NOT AND SWAP1 DUP4 PUSH1 0x1 SIGNEXTEND PUSH2 0xFFFF AND MUL OR SWAP1 SSTORE POP PUSH4 0x7FFFFFFF PUSH1 0x2 PUSH1 0x3 PUSH2 0x100 EXP DUP2 SLOAD DUP2 PUSH4 0xFFFFFFFF MUL NOT AND SWAP1 DUP4 PUSH1 0x3 SIGNEXTEND PUSH4 0xFFFFFFFF AND MUL OR SWAP1 SSTORE POP PUSH32 0x7FFFFFFFFFFFFFFFFFFFFFFFFFFFFFFFFFFFFFFFFFFFFFFFFFFFFFFFFFFFFFFF PUSH1 0x3 SSTORE CALLVALUE DUP1 ISZERO PUSH2 0x11A JUMPI PUSH0 PUSH0 REVERT JUMPDEST POP PUSH2 0x3C8 DUP1 PUSH2 0x128 PUSH0 CODECOPY PUSH0 RETURN INVALID PUSH1 0x80 PUSH1 0x40 MSTORE CALLVALUE DUP1 ISZERO PUSH2 0xF JUMPI PUSH0 PUSH0 REVERT JUMPDEST POP PUSH1 0x4 CALLDATASIZE LT PUSH2 0x85 JUMPI PUSH0 CALLDATALOAD PUSH1 0xE0 SHR DUP1 PUSH4 0x5F8B5400 GT PUSH2 0x59 JUMPI DUP1 PUSH4 0x5F8B5400 EQ PUSH2 0x101 JUMPI DUP1 PUSH4 0xAA5AC02B EQ PUSH2 0x11F JUMPI DUP1 PUSH4 0xAD5572F8 EQ PUSH2 0x13D JUMPI DUP1 PUSH4 0xFC9C3FC0 EQ PUSH2 0x15B JUMPI PUSH2 0x85 JUMP JUMPDEST DUP1 PUSH3 0x152AE3 EQ PUSH2 0x89 JUMPI DUP1 PUSH4 0x3BD7A5E EQ PUSH2 0xA7 JUMPI DUP1 PUSH4 0x1905D859 EQ PUSH2 0xC5 JUMPI DUP1 PUSH4 0x4B275D2A EQ PUSH2 0xE3 JUMPI JUMPDEST PUSH0 PUSH0 REVERT JUMPDEST PUSH2 0x91 PUSH2 0x179 JUMP JUMPDEST PUSH1 0x40 MLOAD PUSH2 0x9E SWAP2 SWAP1 PUSH2 0x20F JUMP JUMPDEST PUSH1 0x40 MLOAD DUP1 SWAP2 SUB SWAP1 RETURN JUMPDEST PUSH2 0xAF PUSH2 0x18A JUMP JUMPDEST PUSH1 0x40 MLOAD PUSH2 0xBC SWAP2 SWAP1 PUSH2 0x243 JUMP JUMPDEST PUSH1 0x40 MLOAD DUP1 SWAP2 SUB SWAP1 RETURN JUMPDEST PUSH2 0xCD PUSH2 0x19D JUMP JUMPDEST PUSH1 0x40 MLOAD PUSH2 0xDA SWAP2 SWAP1 PUSH2 0x277 JUMP JUMPDEST PUSH1 0x40 MLOAD DUP1 SWAP2 SUB SWAP1 RETURN JUMPDEST PUSH2 0xEB PUSH2 0x1AE JUMP JUMPDEST PUSH1 0x40 MLOAD PUSH2 0xF8 SWAP2 SWAP1 PUSH2 0x2AC JUMP JUMPDEST PUSH1 0x40 MLOAD DUP1 SWAP2 SUB SWAP1 RETURN JUMPDEST PUSH2 0x109 PUSH2 0x1C1 JUMP JUMPDEST PUSH1 0x40 MLOAD PUSH2 0x116 SWAP2 SWAP1 PUSH2 0x2E3 JUMP JUMPDEST PUSH1 0x40 MLOAD DUP1 SWAP2 SUB SWAP1 RETURN JUMPDEST PUSH2 0x127 PUSH2 0x1D6 JUMP JUMPDEST PUSH1 0x40 MLOAD PUSH2 0x134 SWAP2 SWAP1 PUSH2 0x317 JUMP JUMPDEST PUSH1 0x40 MLOAD DUP1 SWAP2 SUB SWAP1 RETURN JUMPDEST PUSH2 0x145 PUSH2 0x1E9 JUMP JUMPDEST PUSH1 0x40 MLOAD PUSH2 0x152 SWAP2 SWAP1 PUSH2 0x348 JUMP JUMPDEST PUSH1 0x40 MLOAD DUP1 SWAP2 SUB SWAP1 RETURN JUMPDEST PUSH2 0x163 PUSH2 0x1EF JUMP JUMPDEST PUSH1 0x40 MLOAD PUSH2 0x170 SWAP2 SWAP1 PUSH2 0x379 JUMP JUMPDEST PUSH1 0x40 MLOAD DUP1 SWAP2 SUB SWAP1 RETURN JUMPDEST PUSH1 0x2 PUSH0 SWAP1 SLOAD SWAP1 PUSH2 0x100 EXP SWAP1 DIV PUSH0 SIGNEXTEND DUP2 JUMP JUMPDEST PUSH1 0x2 PUSH1 0x3 SWAP1 SLOAD SWAP1 PUSH2 0x100 EXP SWAP1 DIV PUSH1 0x3 SIGNEXTEND DUP2 JUMP JUMPDEST PUSH0 PUSH0 SWAP1 SLOAD SWAP1 PUSH2 0x100 EXP SWAP1 DIV PUSH1 0xFF AND DUP2 JUMP JUMPDEST PUSH0 PUSH1 0x1 SWAP1 SLOAD SWAP1 PUSH2 0x100 EXP SWAP1 DIV PUSH2 0xFFFF AND DUP2 JUMP JUMPDEST PUSH0 PUSH1 0x3 SWAP1 SLOAD SWAP1 PUSH2 0x100 EXP SWAP1 DIV PUSH4 0xFFFFFFFF AND DUP2 JUMP JUMPDEST PUSH1 0x2 PUSH1 0x1 SWAP1 SLOAD SWAP1 PUSH2 0x100 EXP SWAP1 DIV PUSH1 0x1 SIGNEXTEND DUP2 JUMP JUMPDEST PUSH1 0x1 SLOAD DUP2 JUMP JUMPDEST PUSH1 0x3 SLOAD DUP2 JUMP JUMPDEST PUSH0 DUP2 PUSH0 SIGNEXTEND SWAP1 POP SWAP2 SWAP1 POP JUMP JUMPDEST PUSH2 0x209 DUP2 PUSH2 0x1F5 JUMP JUMPDEST DUP3 MSTORE POP POP JUMP JUMPDEST PUSH0 PUSH1 0x20 DUP3 ADD SWAP1 POP PUSH2 0x222 PUSH0 DUP4 ADD DUP5 PUSH2 0x200 JUMP JUMPDEST SWAP3 SWAP2 POP POP JUMP JUMPDEST PUSH0 DUP2 PUSH1 0x3 SIGNEXTEND SWAP1 POP SWAP2 SWAP1 POP JUMP JUMPDEST PUSH2 0x23D DUP2 PUSH2 0x228 JUMP JUMPDEST DUP3 MSTORE POP POP JUMP JUMPDEST PUSH0 PUSH1 0x20 DUP3 ADD SWAP1 POP PUSH2 0x256 PUSH0 DUP4 ADD DUP5 PUSH2 0x234 JUMP JUMPDEST SWAP3 SWAP2 POP POP JUMP JUMPDEST PUSH0 PUSH1 0xFF DUP3 AND SWAP1 POP SWAP2 SWAP1 POP JUMP JUMPDEST PUSH2 0x271 DUP2 PUSH2 0x25C JUMP JUMPDEST DUP3 MSTORE POP POP JUMP JUMPDEST PUSH0 PUSH1 0x20 DUP3 ADD SWAP1 POP PUSH2 0x28A PUSH0 DUP4 ADD DUP5 PUSH2 0x268 JUMP JUMPDEST SWAP3 SWAP2 POP POP JUMP JUMPDEST PUSH0 PUSH2 0xFFFF DUP3 AND SWAP1 POP SWAP2 SWAP1 POP JUMP JUMPDEST PUSH2 0x2A6 DUP2 PUSH2 0x290 JUMP JUMPDEST DUP3 MSTORE POP POP JUMP JUMPDEST PUSH0 PUSH1 0x20 DUP3 ADD SWAP1 POP PUSH2 0x2BF PUSH0 DUP4 ADD DUP5 PUSH2 0x29D JUMP JUMPDEST SWAP3 SWAP2 POP POP JUMP JUMPDEST PUSH0 PUSH4 0xFFFFFFFF DUP3 AND SWAP1 POP SWAP2 SWAP1 POP JUMP JUMPDEST PUSH2 0x2DD DUP2 PUSH2 0x2C5 JUMP JUMPDEST DUP3 MSTORE POP POP JUMP JUMPDEST PUSH0 PUSH1 0x20 DUP3 ADD SWAP1 POP PUSH2 0x2F6 PUSH0 DUP4 ADD DUP5 PUSH2 0x2D4 JUMP JUMPDEST SWAP3 SWAP2 POP POP JUMP JUMPDEST PUSH0 DUP2 PUSH1 0x1 SIGNEXTEND SWAP1 POP SWAP2 SWAP1 POP JUMP JUMPDEST PUSH2 0x311 DUP2 PUSH2 0x2FC JUMP JUMPDEST DUP3 MSTORE POP POP JUMP JUMPDEST PUSH0 PUSH1 0x20 DUP3 ADD SWAP1 POP PUSH2 0x32A PUSH0 DUP4 ADD DUP5 PUSH2 0x308 JUMP JUMPDEST SWAP3 SWAP2 POP POP JUMP JUMPDEST PUSH0 DUP2 SWAP1 POP SWAP2 SWAP1 POP JUMP JUMPDEST PUSH2 0x342 DUP2 PUSH2 0x330 JUMP JUMPDEST DUP3 MSTORE POP POP JUMP JUMPDEST PUSH0 PUSH1 0x20 DUP3 ADD SWAP1 POP PUSH2 0x35B PUSH0 DUP4 ADD DUP5 PUSH2 0x339 JUMP JUMPDEST SWAP3 SWAP2 POP POP JUMP JUMPDEST PUSH0 DUP2 SWAP1 POP SWAP2 SWAP1 POP JUMP JUMPDEST PUSH2 0x373 DUP2 PUSH2 0x361 JUMP JUMPDEST DUP3 MSTORE POP POP JUMP JUMPDEST PUSH0 PUSH1 0x20 DUP3 ADD SWAP1 POP PUSH2 0x38C PUSH0 DUP4 ADD DUP5 PUSH2 0x36A JUMP JUMPDEST SWAP3 SWAP2 POP POP JUMP INVALID LOG2 PUSH5 0x6970667358 0x22 SLT KECCAK256 MSIZE 0xB5 0xBF 0xC 0xBD DUP14 PUSH12 0x625547AB9C2E53E929620244 0xC7 0x25 TIMESTAMP PUSH21 0xD5FFC784A78D88C15664736F6C6343000822003300 "
				},
				"gasEstimates": {
					"creation": {
						"codeDepositCost": "193600",
						"executionCost": "190268",
						"totalCost": "383868"
					},
					"external": {
						"maxValue_int16()": "2543",
						"maxValue_int256()": "2491",
						"maxValue_int32()": "2544",
						"maxValue_int8()": "2469",
						"maxValue_uint16()": "2583",
						"maxValue_uint256()": "2469",
						"maxValue_uint32()": "2516",
						"maxValue_uint8()": "2510"
					}
				},
				"methodIdentifiers": {
					"maxValue_int16()": "aa5ac02b",
					"maxValue_int256()": "fc9c3fc0",
					"maxValue_int32()": "03bd7a5e",
					"maxValue_int8()": "00152ae3",
					"maxValue_uint16()": "4b275d2a",
					"maxValue_uint256()": "ad5572f8",
					"maxValue_uint32()": "5f8b5400",
					"maxValue_uint8()": "1905d859"
				}
			},
			"storageLayout": {
				"storage": [
					{
						"astId": 8,
						"contract": "contracts/Values.sol:FindMinMaxValue",
						"label": "maxValue_uint8",
						"offset": 0,
						"slot": "0",
						"type": "t_uint8"
					},
					{
						"astId": 15,
						"contract": "contracts/Values.sol:FindMinMaxValue",
						"label": "maxValue_uint16",
						"offset": 1,
						"slot": "0",
						"type": "t_uint16"
					},
					{
						"astId": 22,
						"contract": "contracts/Values.sol:FindMinMaxValue",
						"label": "maxValue_uint32",
						"offset": 3,
						"slot": "0",
						"type": "t_uint32"
					},
					{
						"astId": 29,
						"contract": "contracts/Values.sol:FindMinMaxValue",
						"label": "maxValue_uint256",
						"offset": 0,
						"slot": "1",
						"type": "t_uint256"
					},
					{
						"astId": 36,
						"contract": "contracts/Values.sol:FindMinMaxValue",
						"label": "maxValue_int8",
						"offset": 0,
						"slot": "2",
						"type": "t_int8"
					},
					{
						"astId": 43,
						"contract": "contracts/Values.sol:FindMinMaxValue",
						"label": "maxValue_int16",
						"offset": 1,
						"slot": "2",
						"type": "t_int16"
					},
					{
						"astId": 50,
						"contract": "contracts/Values.sol:FindMinMaxValue",
						"label": "maxValue_int32",
						"offset": 3,
						"slot": "2",
						"type": "t_int32"
					},
					{
						"astId": 57,
						"contract": "contracts/Values.sol:FindMinMaxValue",
						"label": "maxValue_int256",
						"offset": 0,
						"slot": "3",
						"type": "t_int256"
					}
				],
				"types": {
					"t_int16": {
						"encoding": "inplace",
						"label": "int16",
						"numberOfBytes": "2"
					},
					"t_int256": {
						"encoding": "inplace",
						"label": "int256",
						"numberOfBytes": "32"
					},
					"t_int32": {
						"encoding": "inplace",
						"label": "int32",
						"numberOfBytes": "4"
					},
					"t_int8": {
						"encoding": "inplace",
						"label": "int8",
						"numberOfBytes": "1"
					},
					"t_uint16": {
						"encoding": "inplace",
						"label": "uint16",
						"numberOfBytes": "2"
					},
					"t_uint256": {
						"encoding": "inplace",
						"label": "uint256",
						"numberOfBytes": "32"
					},
					"t_uint32": {
						"encoding": "inplace",
						"label": "uint32",
						"numberOfBytes": "4"
					},
					"t_uint8": {
						"encoding": "inplace",
						"label": "uint8",
						"numberOfBytes": "1"
					}
				}
			},
			"userdoc": {
				"kind": "user",
				"methods": {},
				"version": 1
			}
		}
	}
}